:100A2C005246494420424153454400415454454E9A
:100A3C0044414E43452053595354454D0053574957
:100A4C00504520594F55522043415244004A414D84
:100A5C0045532D50524553454E54004B4156494E2B
:100A6C002D50524553454E54004E49524553482D36
:100A7C0050524553454E54005341424553482D5016
:100A8C00524553454E54005355524553482D5052E0
:100A9C004553454E5400504552534F4E004E4F5403
:100AAC00205245474953544552454400414C524508
:100ABC0041445920524547495354455245440046F8
:100ACC004F5220544F44415900546F74616C3A009A
:100B5E00120D08120CF47F8C120CC47BFF7A0A79EA
:100B6E002C120C9D7FC7120CC47BFF7A0A793712A8
:100B7E000C9D7F01120CC47BFF7A0A7949120C9DE1
:100B8E007BFF7A0A7949120C26E4F509C3E509942C
:100B9E000C74809480501D3098FD740A2509F8A6B7
:100BAE0099C298740A2509F8E6F5993099FDC2990B
:100BBE00050980D812080075990D3099FDC29980EB
:010BCE00B175
:10080000E50A64457062E50B6445705CE50C64457F
:100810007056E50D64527050E50E6445704AE50F60
:1008200064477044E5106431703EE51164397038F6
:10083000E51264457032E5136431702CE5146432BE
:100840007026E51564307020C3E516940174809419
:100850008040030209E57F01120CC4051605087BE0
:10086000FF7A0A79590209F3E50A6445705EE50BDF
:1008700064457058E50C64457052E50D6452704C47
:10088000E50E64457046E50F64477040E51064313D
:10089000703AE51164397034E5126445702EE51341
:1008A00064317028E51464327022E5156434701CDC
:1008B000C3E51794017480948040030209E505178D
:1008C000120CC07BFF7A0A79670209F3E50A6445D6
:1008D000705EE50B64457058E50C64457052E50D9B
:1008E0006452704CE50E64457046E50F64477040F5
:1008F000E5106431703AE51164397034E5126445ED
:10090000702EE51364317028E51464337022E51508
:100910006434701CC3E51894017480948040030211
:1009200009E50518120CC07BFF7A0A79750209F3F4
:10093000E50A6445705CE50B64457056E50C64455A
:100940007050E50D6452704AE50E64457044E50F41
:100950006447703EE51064317038E51164397032D7
:10096000E5126445702CE51364317026E514643497
:100970007020E5156433701AC3E5199401748094EE
:1009800080400280600519120CC07BFF7A0A7984CE
:100990008061E50A6445706DE50B64457067E50CA0
:1009A00064457061E50D6452705BE50E64457055F9
:1009B000E50F6447704FE51064317049E511643903
:1009C0007043E5126445703DE51364317037E514FA
:1009D00064357031E5156433702BC3E51A940174E6
:1009E0008094804003020C51051A120CC07BFF7AE0
:1009F0000A7993120C9D120C79AF08120BCF7F323B
:100A00007E00020C7D7F01120CC47BFF7A0A79A262
:100A1000120C9D7FC0120CC47BFF7A0A79A9120CBC
:0C0A20009D120C79C296120C79D296221D
:100CF4007F38120CC47F01120CC47F0C120CC47F09
:040D040080020CC499
:040CC00005087F01A3
:100CC4008FA0C290C291D2927FF47E01120C7DC299
:080CD400927FF47E01020C7D09
:100CDC008FA0D290C291D2927FF47E01120C7DC271
:080CEC00927FF47E01020C7DF1
:040C79007F327E0048
:100C7D00E4FDFCC3ED9FEC9E50070DBD00010C8003
:0F0C8D00F2E4FFFE0FBF00010EBE2EF8BFE0F530
:010C9C002235
:060C9D008B218A2289234D
:100CA300E4F524AB21AA22A92385248275830012AB
:0C0CB3000ADCFF6007120CDC052480E75F
:010CBF002212
:0C0D0800759850758920758DFDD28E22E3
:060C26008B1C8A1D891ED3
:100C2C00E4FFAB1CAA1DA91E8F82758300120ADC7F
:100C3C00600AF5993099FDC2990F80E675990D30CF
:040C4C0099FDC299B3
:010C50002281
:100C51007F01120CC47BFF7A0A79B8120C9D7FC008
:100C6100120CC47BFF7A0A79CB120C9D120C797598
:080C7100990D3099FDC2992292
:020BCF008F1C79
:100BD1007FC0120CC47BFF7A0A79D5120C9DAB1C25
:100BE1007A007C007D0AAF037E00120B098E1D8FF7
:100BF1001E7E00AF037C007D0A120B098C1F8D2025
:100C01007430251EF51EE4351DF51D74302520F5C3
:100C110020E4351FF51F7FC7120CC4AF1E120CDC78
:050C2100AF20020CDC15
:03000000020D14DA
:0C0D1400787FE4F6D8FD758124020B5EA8
:100ADC00BB010CE58229F582E5833AF583E02250CF
:100AEC0006E92582F8E622BBFE06E92582F8E22219
:0D0AFC00E58229F582E5833AF583E4932233
:100B0900BC000BBE0029EF8DF084FFADF022E4CCD0
:100B1900F875F008EF2FFFEE33FEEC33FCEE9DEC99
:100B2900984005FCEE9DFE0FD5F0E9E4CEFD22EDDF
:100B3900F8F5F0EE8420D21CFEADF075F008EF2F29
:100B4900FFED33FD4007985006D5F0F222C398FD1A
:050B59000FD5F0EA22B7
:00000001FF
